:020000040800F2
:10000000D0320020150300089D650008E752000863
:10001000C9630008A92000082B7700080000000031
:10002000000000000000000000000000616A0008FD
:100030003D2300080000000035690008756B0008CA
:100040002F0300082F0300082F0300082F030008C8
:100050002F0300082F0300082F0300082F030008B8
:100060002F0300083F2300082F0300085D2200082B
:100070002F030008692200082F0300082F0300083F
:10008000752200082F0300082F0300082F03000823
:100090002F0300082F0300082F0300082F03000878
:1000A0002F0300082F0300082F0300082F03000868
:1000B0009D6C00082F0300082F0300082F03000881
:1000C0002F0300082F0300082F0300082F03000848
:1000D0002F030008E5730008F17300082F030008E0
:1000E0002F0300082F0300082F0300082F03000828
:1000F0002F0300082F0300082F0300082F03000818
:100100002F0300082F0300082F0300082F03000807
:10011000856F0008916F00082F0300082F03000867
:100120002F030008812200088D2200082F030008F9
:100130002F0300082F0300082F0300082F030008D7
:100140002F0300082F0300082F0300082F030008C7
:100150002F0300082F0300082F030008FD73000879
:100160002F0300082F0300082F0300082F030008A7
:100170002F0300082F0300082F03000800000000D1
:100180002F0300082F03000800F002F800F0B2F877
:100190000AA090E8000C82448344AAF10107DA45E2
:1001A00001D100F0A7F8AFF2090EBAE80F0013F082
:1001B000010F18BFFB1A43F0010318475C970000BA
:1001C0007C9700000A444FF0000C10F8013B13F03C
:1001D000070408BF10F8014B1D1108BF10F8015BA0
:1001E000641E05D010F8016B641E01F8016BF9D193
:1001F00013F0080F1EBF10F8014BAD1C0C1B09D1EA
:100200006D1E58BF01F801CBFAD505E014F8016B5B
:1002100001F8016B6D1EF9D59142D6D370470000ED
:100220000023002400250026103A28BF78C1FBD8FF
:10023000520728BF30C148BF0B6070476E2900F0DD
:10024000D382702900F01D84662908F08085652915
:1002500008F07D85672908F07A85612908F079859D
:1002600003681B0A28BF41F08001692900F08082E1
:10027000642900F07D82752900F07A826F2900F0F0
:10028000AA83782900F0E983E92900F04583E4296D
:1002900000F04283F52900F03F83EF2900F0A783A7
:1002A000F82900F0E8830368DB0928BF41F08001EA
:1002B000632901F0F380732901F0F880E32901F04C
:1002C0000381F32901F00881002070471FB508F071
:1002D00034FD01F053F904000020002108F0D0F9AA
:1002E000401C60600020002108F0B4F9E0601FBDF0
:1002F00010B510BD01F015F91146FFF7E7FF07F043
:1003000023FE01F0F1F903B4FFF7F2FF03BC01F0A3
:10031000F5F900000948804709480047FEE7FEE775
:10032000FEE7FEE7FEE7FEE7FEE7FEE7FEE7FEE7A5
:1003300004480549054A064B704700000D6C00084B
:1003400089010008D0100020D0320020D0220020E7
:10035000D022002053EA020C00F069802DE9F04B16
:100360004FF00006002B1FBFB3FA83F503FA05F424
:1003700024FA05F65E4012BF1643B2FA82F502FA7D
:1003800005F4C5F120051EBF22FA05FC44EA0C0461
:10039000203556EA044C4FEA144418BF641C4FF051
:1003A00000084FF00009904271EB030C39D300298B
:1003B00019BFB1FA81F701FA07F6B0FA80F700FA2F
:1003C00007F6C7F120071EBF20FA07FC46EA0C0615
:1003D0002037B6FBF4FCA7EB0507103F07F01F0B17
:1003E000CBF120060CFA0BFB2CFA06F644BFB34601
:1003F0000026202FA4BF5E464FF0000B5BEA060CE0
:1004000008BF4FF0010B19EB0B09ABFB027C48EB6B
:100410000608C01B06FB02CC0BFB03CC71EB0C01E6
:10042000C1E70B46024641464846BDE8F08B13B58E
:100430004FF000004FF00001AFF30080BDE81C401A
:10044000704700007CB51D4616460C00009001D098
:100450002044401E074B7B442A46694601903046A3
:1004600000F0DBF905461CB10020694600F0E8F910
:1004700028467CBDF103000040EA010310B59B074C
:100480000FD1042A0DD310C808C9121F9C42F8D0FE
:1004900020BA19BA884201D9012010BD4FF0FF30AF
:1004A00010BD1AB1D30703D0521C07E0002010BDC5
:1004B00010F8013B11F8014B1B1B07D110F8013B51
:1004C00011F8014B1B1B01D1921EF1D1184610BD32
:1004D00010B5431C02E010F8011B71B18107FAD17D
:1004E0004FF0013202C88C1A8C4314EAC211F9D0C1
:1004F000C01A0A0603D0C01E10BDC01A10BD0A04DF
:1005000001D0801E10BD0902FCD0401E10BD032A80
:1005100040F2308010F0030C00F0158011F8013B20
:10052000BCF1020F624498BF11F801CB00F8013B07
:1005300038BF11F8013BA2F1040298BF00F801CBCB
:1005400038BF00F8013B11F0030300F02580083AA2
:10055000C0F0088051F8043B083A51F804CBA0E8F9
:100560000810F5E7121D5CBF51F8043B40F8043B4E
:10057000AFF30080D20724BF11F8013B11F801CB83
:1005800048BF11F8012B24BF00F8013B00F801CB54
:1005900048BF00F8012B704710B5203AC0F00B801F
:1005A000B1E81850203AA0E81850B1E81850A0E877
:1005B0001850BFF4F5AF5FEA027C24BFB1E81850D1
:1005C000A0E8185044BF18C918C0BDE810405FEA41
:1005D000827C24BF51F8043B40F8043B08BF7047BD
:1005E000D20728BF31F8023B48BF11F8012B28BFC2
:1005F00020F8023B48BF00F8012B70474FF0000283
:100600000429C0F0128010F0030C00F01B80CCF124
:10061000040CBCF1020F18BF00F8012BA8BF20F892
:10062000022BA1EB0C0100F00DB85FEAC17C24BFE6
:1006300000F8012B00F8012B48BF00F8012B704790
:100640004FF0000200B5134694469646203922BF6B
:10065000A0E80C50A0E80C50B1F12001BFF4F7AFB6
:10066000090728BFA0E80C5048BF0CC05DF804EB98
:10067000890028BF40F8042B08BF704748BF20F806
:10068000022B11F0804F18BF00F8012B7047704704
:100690007047704710B500F0C7FA006810BD10B57C
:1006A000044600F0C1FA046010BD70B504468569C7
:1006B0000068C10601D5302600E02026C00707D01B
:1006C00070BDD4E9012130469047206A401C206269
:1006D0006D1EF6D570BD70B5044685690078C007FB
:1006E00007D170BDD4E9012120209047206A401C29
:1006F00020626D1EF6D570BD09684A0501D540B26D
:100700007047C905FCD500B2704709684A0501D594
:10071000C0B27047C905FCD580B2704770B50C46B1
:100720000546012A05D02878800600D5EA6900230D
:1007300002E0012305E05B1C934202D2E05C00284A
:10074000F9D1A869E618C01AA861286A1844286275
:100750002846FFF7AAFF04E0D5E9012114F8010BB0
:100760009047B442F8D32846FFF7B5FF70BD0000AC
:100770002DE9F0410646002410687529314616A57A
:1007800010D0FFF7B9FF002802DA404213A507E0B6
:1007900031688A0701D512A502E0490704D511A5E1
:1007A000012401E0FFF7B1FF00210A2206F124072E
:1007B00009E0B0FBF2FCB0FBF2F302FB1C003030AE
:1007C00078541846491C0028F3D123462A4630465F
:1007D000BDE8F04100F071BA000000002D000000FB
:1007E0002B0000002000000011680268006A530519
:1007F00001D508700AE0D30501D5088006E013068C
:1008000003D5C217C1E9000200E00860012070476B
:1008100001694A1C02610878704700B58FB0CDE9C4
:1008200001310021059105497944CDE903101146B4
:10083000684600F031F90FB000BD0000E5FFFFFF92
:100840000A6802F8010B0A607047D1E900239A4256
:1008500002D2531C0B601070704700002DE9FF5F3F
:1008600015468A460446DFF8AC80F8440027D8E9EC
:1008700000103E46CDE9001010E03AF816106A4626
:1008800002A800F02DFE411C07D02178890603D56F
:10089000E269391891420DD80744761C2078800609
:1008A00002D5E069B84205DDAE42E6DB3AF8160053
:1008B0000028E2D1A069C01BA0612046FFF7F5FE29
:1008C000D8E90010CDE90010002017E03AF8181020
:1008D0006A4602A800F004FEB0F1FF3F81460BD04B
:1008E00000250DF1080B05E0D4E901211BF80500F6
:1008F00090476D1C4D45F7D308F10100B04280468A
:10090000E4DB206A384420622046FFF7E4FEBDE8BD
:10091000FF9F0000AE8F00002DE9F0418046D21D00
:1009200022F007020025D2E90002F52915A614D00D
:10093000011E72F1000106DA0023D0EB030063EB25
:10094000020211A608E0D8F800108B0701D50FA607
:1009500002E0490701D50EA601251146002408F141
:10096000240704E000F064F930323A55641C50EA80
:100970000102F7D12B46324621464046BDE8F04100
:1009800000F09BB9000000002D0000002B000000CB
:100990002000000030B4002100F1240408E002F03F
:1009A0000705D208303542EA4372DB086554491C1A
:1009B00052EA0305F3D10468002310A2250707D5E6
:1009C000A40600D421B1C46901230DA2641EC46130
:1009D00030BC00F072B910B5044621461068FFF72C
:1009E00094FE02462046BDE810400023D2E7D21D07
:1009F00022F00701D1E90023CCE70000000000004D
:100A000030000000F0B40D460188090502D5214CE4
:100A10007C4402E01F4C7C440E34002100F124068B
:100A200008E002F00F071209E75D42EA03721B09B2
:100A30007754491C52EA0307F3D1027800231207C6
:100A400004D5702D06D009B1022311342246F0BC22
:100A500000F033B901231034F8E770B504460D46B1
:100A600021461068FFF751FE024629462046BDE8A0
:100A700070400023C6E7D21D22F00703D3E900230C
:100A8000C0E70368126843F0200303600823C361D2
:100A90000023B7E7108E00002DE9F05F8946044679
:100AA0004FF0000ADFF874B1FB44C0F820A02046E4
:100AB000E1688847002874D0252806D0D4E90121B0
:100AC0009047206A401C2062F1E700265F462046DE
:100AD000E16888472028054607DB312D05D27819C3
:100AE00010F8200C08B10643F1E7B00701D526F055
:100AF0000406C4F81CA00027C4F818A02A2D09D0A9
:100B0000284606F0F9FF38B304EB8708303DC8F8F3
:100B1000185019E059F8041B204604EB8702916134
:100B2000E1688847012F054618D1E069002820DADE
:100B300026F020061DE0D8F8180000EB800005EB39
:100B400040003038C8F818002046E168884705465C
:100B500006F0D2FF0028EED1012F0AD02E2D08D1A9
:100B60002046E16888477F1C0546022F46F0200694
:100B7000C4DBA069002803DA404246F00106A06108
:100B8000F00701D026F010066C2D0BD0682D09D08F
:100B90004C2D39D06A2D35D0742D35D07A2D33D0E7
:100BA00016E038E0E1682F4620468847B8420546FF
:100BB00009D16C2F26D04FF48060E16806432046AF
:100BC0008847054604E06C2F1AD04FF48070064326
:100BD0000DB3A5F14100192802D8203546F400666E
:100BE0004A462946204626604E46FFF727FB80B13D
:100BF00001280BD0F61D26F0070000F1080956E782
:100C00004020E4E78020D8E70020D6E706F1040979
:100C10004DE7284652E7206ABDE8F09FA08D00000E
:100C20000048704770100020004870477010002086
:100C300030B5B0F10A024FEA900E71F100034EEAAE
:100C4000817EB0EB0E0061EB91014FEA101E4EEA7F
:100C5000017E10EB0E0041EB11114FEA102E4EEA0F
:100C6000016E10EB0E0041EB11214FEA104E4EEADF
:100C7000014E10EB0E0041EB1141401841F1000113
:100C80004FEAD00040EA41704FEAD10110EB8005F5
:100C90004FEA810444EA907444EB01046D1944EB7B
:100CA0000404521BA3414FF0000348BF0A3200D591
:100CB00030BD401C41F1000130BD2DE9F0470D462B
:100CC00099469246044600F124080168880604D536
:100CD000E06921F01001216000E00120A84201DD5F
:100CE000471B00E00027A1697A1902EB0900081AE6
:100CF000A0612078C00602D42046FFF7D6FC00266B
:100D000008E0D4E901211AF806009047206A401C47
:100D1000761C20624E45F4DB2078C0060AD52046BA
:100D2000FFF7C3FC06E0D4E9012130209047206A98
:100D3000401C2062381EA7F10107F4DC07E0D4E96B
:100D4000012118F805009047206A401C2062281EE7
:100D5000A5F10105F3DC2046FFF7BDFC2078000675
:100D600002D50220BDE8F0870120FBE770472DE99E
:100D7000FF4F0C461E464FF0FF378BB0D2E9000103
:100D8000DDF860800A908A46C1F30A5505B93D46F0
:100D9000002108464FF00000BAF1000F00F44000B7
:100DA00005DA00EB80004FF4400101EA50004FEA01
:100DB0009059B9F1010F00DDB9460A9850EA4A008E
:100DC0000ED044F61050A5F2FF3545432F14B8F16C
:100DD000000F1ED07542291E1EDDC9F100021CE065
:100DE000B8F1010F4FF0000001D0302103E0F243D1
:100DF00005E02154401CB042FBDB304600220021BC
:100E000021540B99C1F80880C1E900200FB0BDE85A
:100E1000F08FBD1B6D1CDEE74A4600DA694206A86A
:100E200000F0F0FB06AB93E8070003AB83E8070094
:100E300050460A9900F0A8FC8DE80700A0F5005084
:100E40001F3800900398002D0ADD42F21F014A4628
:100E50000844002303A90390684600F011FF09E04D
:100E6000A0F500504A461F38002303A903906846A6
:100E700000F01BFF8DE807000004000C03D04FF0CA
:100E8000FF30410800E01046B8F1000F03D0002207
:100E9000009215461EE0751E05D4FFF7C9FE3032DC
:100EA00062556D1EF9D5B3460122084302D00022D7
:100EB0007F1C04E02078302801D100227F1E002A08
:100EC000099784D01DE0112D07DAFFF7B1FE30320B
:100ED00062556D1C50EA0102F5D1084302D000981A
:100EE000C8B10EE00021681E05E0235C625C63541B
:100EF0002254401E491C8142F7DBAB46A81B401E12
:100F00000990002004F80B000B98099AC0F808809B
:100F1000C0E9002B7AE711264FF0000857E72DE9CA
:100F2000F04F88460446D21D22F0070191B0D1E966
:100F30000001CDE90A0106F026FC02460B98C00F1D
:100F400001D02D2007E02068810701D52B2002E089
:100F5000202101EAC000032A099001D0072A05DBFD
:100F600003464146204600F00DFB0BE12078800649
:100F700001D5E06900E00620B8F1650F814606D092
:100F8000B8F1660F18D0B8F1670F70D131E00020CA
:100F9000B9F1110F009001DB112301E009F1010308
:100FA0000AAA01A90CA8FFF7E2FEDDE90C700026F1
:100FB00009F10105834647E001204B4600904FF0C0
:100FC00000470AAA01A90CA8FFF7D1FEDDE90DB080
:100FD0000C995D46002610B909F101000D18B9EB16
:100FE000050003D4C0F1FF3609F10105A5EB0900A6
:100FF0002BE0B9F1010F01DA4FF001090020B9F13E
:10100000110F0090484601DD112300E003460AAAB3
:1010100001A90CA8FFF7ABFEDDE90C704D460026D8
:101020008346207800070AD4AB4500DA5D4601A864
:10103000012D04DD411911F8011C302907D04F455D
:1010400002DA17F1040F04DA012082460FE06D1E68
:10105000EEE7002F02DCED1B3E4403E0781CA842C3
:1010600000DD7D1CB81B00F1010A4FF0004720781D
:10107000000703D4AA4501DB4FF0FF3A0021B7F186
:10108000004F0DF143088DF8431024D002202B238C
:10109000002F01DA7F422D230A21021EA0F1010058
:1010A00000DC5FB197FBF1FC97FBF1F201FB1C7CCC
:1010B00017460CF1300C08F801CDEEE7A8F101005D
:1010C00003702188090501D5452100E06521A0F1C3
:1010D000010800F8011C09980FA9A1EB0807FF1DE2
:1010E00000B10120411901EBEA70A1693844081AE6
:1010F000401EA0612078C00602D42046FFF7D5FA32
:10110000099828B1D4E901219047206A401C206247
:101110002078C00622D52046FFF7C7FA1EE0002E31
:1011200004DBB34502DD01A8805D00E03020D4E996
:1011300001219047206A401C2062761CAAF1010020
:101140005FEA000A0AD100F019FAC0680168405C41
:10115000D4E901219047206A401C2062281EA5F195
:101160000105DCDC07E0D4E9012118F8010B904708
:10117000206A401C2062381EA7F10107F3DC2046DC
:10118000FFF7A9FA032011B041E600002DE9F04F66
:1011900004460D46D21D22F0070089B0D0E9009721
:1011A0004846394606F0EFFA0246F80F01D02D23E3
:1011B00007E02068810701D52B2302E0202101EA06
:1011C000C0038DF820300BB1012000E00020032A7D
:1011D000824601D0072A04DB2946204600F0D2F9D6
:1011E0003FE12078800601D40D2500E0E569C7F3D2
:1011F0000A560D2D49DA00214FEA175B08464FF0D9
:101200000000002F00F4400007DA00EB80004FF4EC
:10121000400100EBD07001EA60008115012901DD79
:101220004FF0FF3100224FEA850CBCF1180F06D3B6
:101230001346ACF118004FF08052C24003E04FF467
:10124000801323FA0CF30CF10C0CBCF1200F04D327
:10125000ACF1200C09FA0CF001E007FA0CF00029BF
:101260004FF0004801DD18B90FE00ED140450CD316
:1012700019EB02095F4121B9404502D19F4329EA98
:101280000209BBEB175F00D0761C2088000502D551
:101290007B48784402E07A487844193808AA302319
:1012A00002F80A30037C0AF10101002E0AF1020A59
:1012B00053546A4602DC4FF0300101E04FF0310137
:1012C0004FF001088DF8001002D0A6F2FF3603E0BF
:1012D00059EA470100D06B4E002D02DC2178090746
:1012E00004D54FF002082E218DF80110C4460021CC
:1012F0000BE0C7F303433F01C35C491C6D1E02F8BA
:101300000830052908F1010801DA002DF1DC00217F
:101310000CE000EB1973491C1B786D1E082902F8BC
:1013200008304FEA091908F1010801DA002DF0DC54
:1013300021688B0602D516E0A8F10108E04505DD1D
:1013400002EB080313F8013C302BF5D0B8F1000F85
:1013500009DD02EB080313F8013C2E2B03D109072A
:1013600001D4A8F10108002D05DD3E2102F8081086
:101370006D1E08F10108407C002E02F8080008F1FB
:10138000010804DA2D20764202F8080002E02B2042
:1013900002F808000A214FF47A70864208F1010829
:1013A0000BDB96FBF0F3303302F8083096FBF0F3DA
:1013B00008F1010800FB136601E0642E0CDB6420D9
:1013C00096FBF0F3303302F8083096FBF0F308F1A7
:1013D000010800FB136601E00A2E06DB96FBF1F024
:1013E000303002F8080008F1010896FBF1F001FB2B
:1013F0001060303002F80800A16908F1010808EB1C
:10140000050202EB0A00081AA0612078C00602D487
:101410002046FFF74AF9216A08AE01EB0A00206274
:1014200004E0D4E9012116F8010B9047BAF1010A52
:10143000F7D22078C00602D52046FFF736F96E466F
:1014400009E016F8010B3E280FD0D4E9012190479E
:10145000206A401C2062B8F10108F2D22046FFF752
:101460003AF909B00320BDE8F08F206A28442062D1
:1014700003E0D4E90121302090476D1EEBD3F8E75B
:10148000DA85000002FCFFFF10B5436913B1AFF32A
:10149000008001E0FFF742F9012010BD127800F151
:1014A00024010A7000224A700122EDE711684FF012
:1014B000FF32E9E710B5436913B1AFF3008001E0F3
:1014C000FFF7CCF9012010BD128800F124018284BD
:1014D0000022C2840122EDE711684FF0FF32E9E7F4
:1014E00070B516460C46054600F040F8036893F8C0
:1014F0000101012806D0FF2C0FD8185D68B101202A
:101500002C7070BDD3F807013246214603F2071351
:1015100003442846BDE8704018474FF0FF3070BDC7
:1015200070477546FFF77CFBAE460500694653469B
:1015300020F00700854618B020B5FEF7F9FEBDE89B
:1015400020404FF000064FF000074FF000084FF02A
:10155000000B21F00701AC46ACE8C009ACE8C009BB
:10156000ACE8C009ACE8C0098D46704710B500F082
:1015700005F8001D10BD00BF09710000004870474C
:10158000901000202DE9F0411F4604460326016813
:10159000072A01F4006004DB08B116A505E016A5D2
:1015A00003E008B115A500E015A521F010002060AA
:1015B000A069C01EA0610FB1401EA0612046FFF7C8
:1015C00074F84FB1D4E9012138469047206A401C95
:1015D0002062C01C206206E0206AFAE7D4E90121FB
:1015E00015F8010B9047761EF8D22046FFF773F8E6
:1015F000BDE8F0814E414E006E616E00494E4600DE
:10160000696E66002DE9F047814616468AB0354876
:1016100078440DC88DE80D0032487844801C03AC36
:101620000DC884E80D0041F69B300844372190FB3B
:10163000F1F290FBF1F5A5F1800501FB12041B3CD2
:1016400002D56442012000E00020DFF898A0804627
:101650000027FA44AAF1BE0A0EE0E0070AD032469B
:10166000684607EB470101230AEB810100F01DFBEF
:101670008DE8070064107F1C002CEED1194F7F44C9
:10168000AE3F19E0E80715D007EB04100DF1180A7A
:1016900090E80E008AE80E00C068F04201D1981967
:1016A00008903246012306A903A800F0FEFA03AB16
:1016B00083E807006D10641C002DE3D14FF0010397
:1016C00032466946B8F1000F03A802D000F0D8FAFC
:1016D00001E000F0EAFAC9E90001C9F808200AB0FF
:1016E000BDE8F087EC82000010B50446AFF300803F
:1016F0002046BDE81040FEF706BE00000149182054
:10170000ABBEFEE7260002004FF0013C50F8042B70
:1017100051F8043B9A4221D1A2EB0C03934313EA04
:10172000CC1317D150F8042B51F8043B9A4215D131
:10173000A2EB0C03934313EACC130BD150F8042B08
:1017400051F8043B9A4209D1A2EB0C03934313EAEC
:10175000CC13DBD04FF00000704700BFD01A01BAA5
:10176000B1FA81F101F0180122FA01F0CB40C1F188
:101770002001DBB2C0B2C01A2CFA01F3D11A914396
:1017800011EAC311E6D170475FEA400C08BF91F03F
:10179000000F4FEA8C234FEAC12243EA51514FEA2E
:1017A0001C5018BF00F5F0404FEA300018BF41F060
:1017B00000415FEA6C5C00F02980BCF1FF3F08BF8C
:1017C00040F080407047130C06BF12044FF0100C1D
:1017D0004FF0000C130E04BF12020CF1080C130F93
:1017E00004BF12010CF1040C930F04BF92000CF122
:1017F000020CD30F04BF52000CF1010C11464FF044
:101800000002A0F11F00A0EB0C00704711F0004F88
:1018100008BF704731F000413FF4D5AF0B0C06BF55
:1018200009044FF0100C4FF0000C0B0E04BF09021E
:101830000CF1080C0B0F04BF09010CF1040C8B0F09
:1018400004BF89000CF1020CCB0F04BF49000CF15E
:10185000010CCCF12003A0EB0C0022FA03F302FAF6
:101860000CF241EA030100F10100704720F07F4CC7
:1018700080EA030023F07F47ACEB070303F57C53BA
:1018800000F0004003F1FF032DE980494FEA154BBA
:1018900009B44FEA144325EA0B4E24EA03480FF239
:1018A000042606EB132749083E785FEA320203FB61
:1018B0000667C7F5000707FB06F64FEA54374FEAFD
:1018C000D64606F1020607FB066CCCF1005C4FEA37
:1018D0001C472CEA074C07FB06F40CFB06F504EB4F
:1018E00015464FEA961634BF00204FF000404FEAED
:1018F000D13706FB07FC4FEA1C4C0CFB0BF7D21B45
:1019000003FB0CF761EB07010CFB0EF7B0EB074094
:1019100072EB17420CFB08F734BFA2EB0742B2EBA5
:10192000074261EB17414FEA0C444FEA910706FB6F
:1019300007FC4FEA1C4C0CFB0BF7B0EBC74072EBFB
:10194000573203FB0CF734BFA2EBC742B2EBC742DE
:1019500061EB57310CFB0EF7B0EBC70072EB57721F
:101960000CFB08F734BFA2EBC702B2EBC70261EB76
:101970005771039F4FEA816141EA921104EBCC0455
:101980004FEAD1374FEA826206FB07FC42EA901227
:101990004FEA80604FEA1C4C0CFB0BF7D21B03FB99
:1019A0000CF761EB07010CFB0EF7B0EB074072EB95
:1019B00017420CFB08F734BFA2EB0742B2EB074219
:1019C00061EB17414FEA8C554FEA910704EB9C24D9
:1019D00006FB07FC4FEA1C4C0CFB0BF7B0EBC740B7
:1019E00072EB573203FB0CF734BFA2EBC742B2EBEA
:1019F000C74261EB57310CFB0EF7B0EBC70072EB3F
:101A000057720CFB08F734BFA2EBC702B2EBC70258
:101A100061EB577115EB4C254FEA816141EA921158
:101A20004FEA82624FEAD13742EA901206FB07FC86
:101A300044F100044FEA80604FEA1C4C0CFB0BF7AA
:101A4000D21B03FB0CF761EB07010CFB0EF7B0EBAD
:101A5000074072EB17420CFB08F734BFA2EB0742BA
:101A6000B2EB074261EB174115EB1C154FEA8131D0
:101A700041EA92414FEA823242EA90424FEA803094
:101A80004FEA0C7644F1000448EA03434EEA0B485F
:101A90004FF0000EB2EB080C71EB030724BF624657
:101AA00039464EEB0E0E4FF0000B001852414941E3
:101AB0004BEB0B0BB2EB080C71EB03077BF1000B4C
:101AC00024BF624639464EEB0E0E4FF0000B001855
:101AD000524149414BEB0B0BB2EB080C71EB030786
:101AE0007BF1000B24BF624639464EEB0E0E51EAE5
:101AF000020718BF46F0010616EB0E7655F10002FC
:101B000054F1000103D5BDE88901BDE80088BDE8B6
:101B10008901BDE80048B619524141EB0101A3F12A
:101B20000103704780807F7E7D7C7B7A7978777631
:101B300076757473727171706F6E6E6D6C6C6B6AAA
:101B40006A69686867666665646463636261616048
:101B5000605F5F5E5E5D5D5C5C5B5B5A5A595958C5
:101B6000585757565655555554545353525252512F
:101B7000515050504F4F4F4E4E4D4D4D4C4C4C4B85
:101B80004B4B4A4A4A4949494848484747474746CC
:101B90004646454545444444444343434342424208
:101BA00042414141002B9C4630D477002BD01CB5DC
:101BB0004FEA370703B44FF010004FF01001BAF1AD
:101BC000000F06D0BCF1000FDCBF40F0080040F071
:101BD00008014FF000000FBCBDE810400BF1010BF5
:101BE000BBF1010F08BF5FEA170722BF12F1010224
:101BF00011F101014FF0004143F1000300F00040FA
:101C000043EA00007047F9D35708D0E746EA064692
:101C100013F1400F4FEA16461FDD13F1200FDFBF0F
:101C200016430A46002120335B42BED0C3F1200791
:101C300046EA064602FA07F74FEA164646EA07065C
:101C4000C3F1200722FA03F201FA07F721FA03F1A0
:101C50004FF0000342EA0702A7E746EA020646EA17
:101C600006464FEA164646EA0106BCBF46EA064665
:101C7000360C4FF000034FF000024FF0000194E7E4
:101C80002DE9804C9A46934670B491E8380007C815
:101C900031EA400C48BF34EA430C03D5FFF7E6FDB8
:101CA000FFF780FFF0BCBDE8008C2DE9804C9A4620
:101CB000934670B491E8380007C810F0804F08BF11
:101CC00013F0804F03D100F005F8FFF76BFFF0BC75
:101CD000BDE8008C20F07F4780EA030023F07F4CB2
:101CE00007EB0C03A3F57C5300F00040A3F1FE03C7
:101CF00092F0000F00F0B38095F0000F00F07780B5
:101D00002DE901494FEA11404FEA144621EA004803
:101D100000FB06FC24EA064708FB06F607FB08F86A
:101D200000FB07F718EB06484CEB164C4FEA124B3A
:101D300018EB07484FEA15464CEB174022EA0B4ECA
:101D40000BFB06FC25EA06470EFB06F607FB0EFE1C
:101D50000BFB07F71EEB064E4CEB164C4FF0000644
:101D60001EEB074E4CEB174B18EB0B0840F1000035
:101D700018EB0E0B58EB000840F100008F1A4FF0E3
:101D800000013CBFC943661B14BFB5EB040C002126
:101D90003CBFC943F61B4FEA17444EEA8E0E27EAB2
:101DA00004454FEA1C4704FB07622CEA074C05FB7D
:101DB00007F70CFB05F604FB0CFC16EB074642EBA1
:101DC000174216EB0C4642EB1C421BEB060658EB87
:101DD0000202414146EA9E0601D5BDE80189B619D5
:101DE000524141EB0101A3F10103BDE801894FEA32
:101DF00014454FEA114724EA054621EA074C05FB42
:101E000007F406FB07F70CFB06F105FB0CFC11EBD6
:101E1000074144EB17444FEA124711EB0C4144EBE6
:101E20001C4422EA074C05FB07F206FB07F70CFBF4
:101E300006F605FB0CFC16EB074642EB174216EBC9
:101E40000C4642EB1C456A1854F1000148BF70472C
:101E5000B619524141EB0101A3F10103704795F01E
:101E6000000F37D04FEA11424FEA144721EA0246E9
:101E700024EA074C02FB07F106FB07F70CFB06F40C
:101E800002FB0CFC14EB074441EB17414FEA1547EA
:101E900014EB0C4441EB1C4125EA074C02FB07F50F
:101EA00006FB07F70CFB06F602FB0CFC16EB0746DD
:101EB00045EB174516EB0C4645EB1C42121951F148
:101EC000000148BF7047B619524141EB0101A3F12F
:101ED000010370474FEA14454FEA114724EA0546CB
:101EE00021EA074C05FB07F106FB07F70CFB06F29E
:101EF0004FF0000605FB0CFC12EB074241EB1741CB
:101F000012EB0C4251EB1C4148BF7047921841EB59
:101F10000101A3F10103704710B50446001D00F054
:101F200047F8002804D12046BDE8104004F0C4BDA5
:101F300010BD00002DE9FC4103244FF6FF762FE091
:101F40000325282000F0E8FEBE270EE0012000F067
:101F5000E3FE8DF80470012301AA70211348009656
:101F600001F0BEF9282000F0D7FE00F065F8C0F3BC
:101F7000C00020B13DB1BCB10020BDE8FC816D1EA8
:101F800015F0FF05E2D1BA208DF80400012301AA63
:101F900070210648009601F0A3F9142000F0BCFE61
:101FA000641E14F0FF04CBD10120E6E7A401002059
:101FB000FEB505464FF6FF76042403231C4A702124
:101FC0001C48009601F08CF94B2000F0A5FE00F0B3
:101FD00033F8C00904D0641E14F0FF04F4D125E0E6
:101FE00024B3052000F098FE062301AA70211148B1
:101FF000009601F07DF89DF805009DF8061041EA75
:1020000000219DF8070040EA0120000928609DF8A2
:1020100007009DF8081041EA00219DF8090040EAF8
:102020000120C0F3130068600020FEBD0120FEBD4A
:1020300029000020A40100201CB500208DF8040018
:102040004FF6FF700090012301AA7021024801F0B1
:102050004FF89DF804001CBDA401002010B506A196
:102060000A4805F049FBFFF765FF094908B1002060
:1020700000E00120087010BD4168745F496E69740A
:10208000202E2E2E2E2E2E0D0A000000540400208D
:102090005C10002003480078002802D00148FFF7B8
:1020A0003BBF70475C100020FEE7000010B51446EF
:1020B00000F062F8064890ED020A84ED000A90ED07
:1020C000030A84ED010A90ED040A84ED020A10BDB2
:1020D000FC0E002070B50C462DED048B054605F076
:1020E00025FB10EE100A9FED218AA0F17C50B0F183
:1020F000807F04D984ED008A84ED018A31E095ED7A
:10210000000AD5ED020A20EE000A00EEA00A05F052
:10211000CBFCF0EE400A95ED010A05F06FFB9FED58
:10212000149ADFED148A20EE090AC0EE280AC4EDE5
:10213000000A95ED010AD5ED020A20EE000A00EE34
:10214000A00A05F0B1FCF0EE400A95ED000AB1EEF0
:10215000400A05F053FB20EE090AC0EE280AC4ED40
:10216000010A84ED028ABDEC048B70BD0000000002
:1021700000003443DB0F49403EB50D460021274C9B
:10218000009101910291227D04F10801F2B394EDD6
:10219000010A03F089FD69462846FFF79BFF2846A0
:1021A00005F0C4FA10EE100A1D4908441D49884282
:1021B00019D294ED000AD4ED020ADDED001A20EEEA
:1021C000201AF7EE000A70EEC00A00EEA11A84EDA4
:1021D000021A94ED031A20EE010A9DED011A00EE99
:1021E000810A84ED030A94ED020A00F01DF884EDE3
:1021F000020A94ED030A00F017F884ED030A94ED47
:10220000040A00F011F884ED040A3EBDFFE72846F9
:10221000FFF760FF01202075F7E70000FC0E0020AB
:10222000CCCCCCC032337300DFED090A094901E0A0
:1022300030EE600A10EE100A8842F9DC064900BF51
:1022400010EE100A884202D930EE200AF8E77047F3
:102250000000B44300003443000034C3014800F0E0
:10226000E9BB00008C050020014800F0E3BB000042
:102270002C050020014800F0DDBB00004C060020CA
:10228000014800F0D7BB0000AC060020014800F078
:10229000D1BB0000EC05002001681823CAB2103A37
:1022A000B2FBF3F2054B6FF30901032A9B5CC36594
:1022B00000D9091D8165084670470000568D000849
:1022C00010B5014600208B698A6A4FF0C07453B183
:1022D000B3F5005F15D072B1012A0CD0022A0AD0E2
:1022E000032A09D104E01AB1012A06D0022A03D137
:1022F000C96AC90100D5012010BDC96AA142FAD03E
:1023000010BD002AF7D0012AF2D0022AF3D0032A06
:10231000F3D010BD30B50468256825F4802525600C
:10232000046863608368402B036803D09960006889
:10233000C26030BD9A600068C16030BD704708203F
:1023400000F0FEBC1CB509490948CDE90001002395
:102350001A460421074805F04DFC20B1012005F084
:10236000B7FD00201CBD4FF0FF301CBDC97F000829
:10237000957F0008300000201FB5002400948DF8E0
:102380000010F3218DF80110AB218DF8021001949B
:102390008DF804306B218DF803208DF80510029420
:1023A00003944FF47A730622694602F04BFF1FBD77
:1023B0001FB5002300938DF80010FE218DF8011049
:1023C00098218DF8021001936B21029303938DF8ED
:1023D00003208DF804104FF47A730522694602F049
:1023E00031FF1FBD10B501600446027108463C2153
:1023F00002F0F2F82168002009684862E0809FED51
:10240000040AA06084ED030A84ED040A10BD0000F4
:102410000000000002681168496A09B2C1800379AE
:1024200003B14942C180126800215162B0F906101F
:10243000DFED100A00EE101A8268B8EEC00A0A44F6
:10244000826080EE201A9FED0C0A21EE000A9FEDBB
:102450000B1AC0EE011A00EE101AB8EEC00A80EE98
:10246000201A9FED070AC0ED031A21EE000A80ED45
:10247000040A70470000A544E25CA3410AD7233C4C
:102480000080BB4510B508A10D4805F035F90022C4
:102490000C490D48FFF7A6FF0B480022BDE810408D
:1024A0000A491430FFF79EBF456E636F6465725F23
:1024B000496E6974202E2E2E2E2E2E0D0A0000003D
:1024C00054040020340300204C0F00207C03002023
:1024D00010B50448FFF79EFF0248BDE810401430D5
:1024E000FFF798BF4C0F002072B6FEE770B50FA142
:1024F000134805F001F900F031F8012215032946CF
:10250000104805F067FF0F4C2078401C20702846CB
:1025100006F040F801222946204605F087FF227880
:10252000BDE8704008A1064805F0E6B8466C617346
:10253000685F496E6974202E2E2E2E2E2E0D0A00F5
:10254000540400200801002073746172745F636F8B
:10255000756E743A25640D0A00000000F0B5ADF503
:10256000037D00253DA1434805F0C6F805F0B8FFFE
:1025700041A1404805F0C0F805F0E8FF024645A13A
:102580003C4805F0B9F82A4647A13A4805F0B4F8A6
:10259000284605F0FFFF4EA1364805F0ADF8FF22B2
:1025A0002946684605F016FF002069460A5CFF2AA6
:1025B00001D04CA103E0401CFF28F7DB4FA12D48C0
:1025C00005F09AF858A63046FDF782FF84B2FF2C3A
:1025D00000D3FE244FF48077394640A8FEF730F848
:1025E0002246314640A8FDF792FF40A90020085539
:1025F0000B462A465CA11F4805F07EF8FF222946BB
:1026000040A805F013FF62A11A4805F075F82A46A4
:1026100063A1184805F070F839466846FEF710F8CF
:10262000FF222946684605F0D5FE6A4666A1114894
:1026300005F062F8FF22694640A8FDF71DFF50B182
:1026400066A10C4805F058F86BA10A4805F054F84B
:102650000DF5037DF0BD6EA1F3E700005350492056
:10266000464C41534820546573742053746172740E
:102670000D0A00005404002053504920466C617339
:102680006820496E697469616C697A65642E0D0A07
:1026900000000000466C6173682049443A2030789D
:1026A000256C580D0A00000045726173696E672041
:1026B000736563746F722061742061646472657302
:1026C00073203078256C582E2E2E0D0A0000000045
:1026D000536563746F72206572617365642E0D0AB1
:1026E00000000000457261736520636865636B20BC
:1026F0004641494C45442E0D0A0000004572617365
:102700006520636865636B205041535345442E2018
:10271000536563746F7220697320616C6C2030782C
:1027200046462E0D0A00000048656C6C6F206672EC
:102730006F6D2053544D333220746F205350492015
:10274000464C41534821204D6963726F756E696F25
:102750006E2053747564696F2054657374202D2046
:1027600031323334352E000057726974696E672038
:102770006461746120746F20616464726573732096
:102780003078256C583A20222573220D0A0000006B
:1027900044617461207772697474656E2E0D0A004D
:1027A00052656164696E6720646174612066726F4E
:1027B0006D2061646472657373203078256C582EC7
:1027C0002E2E0D0A000000004461746120726561C4
:1027D000643A20222573220D0A00000044617461CE
:1027E00020564552494649434154494F4E2046419F
:1027F000494C4544210D0A0053504920464C415351
:1028000048205465737420456E640D0A0000000072
:102810004461746120564552494649454421205738
:102820007269746520616E642052656164207375FD
:10283000636365737366756C2E0D0A007047000044
:1028400001A1064804F058BF477261795F496E697B
:1028500074202E2E2E2E2E2E0D0A00005404002041
:1028600010B503F005FA0249C043087010BD00001E
:10287000B00000200948002180ED000AB7EE000AF0
:1028800080EE201A9FED060A80ED011A80ED020A03
:1028900080ED030A80ED040A01757047FC0E0020EC
:1028A0000000000010B507A10F4804F025FF02F05A
:1028B000FFFFBDE81040DFED0D0A9FED0D0AFFF7A9
:1028C000D9BF000049434D32303630382047797245
:1028D0006F73636F70655F496E6974202E2E2E2EA4
:1028E0002E2E0D0A00000000540400200000C842F3
:1028F0000AD7A33C1F4A10B5A2F124010C46A1F14E
:102900000C0003F087F81B4A2146183AA2F1180080
:10291000FFF7CCFB1848174C0178303C69B901210E
:10292000017094ED070A80ED010A94ED060A80ED2E
:10293000020A94ED080A80ED030A94ED070AD0ED2F
:10294000010A30EE600A84ED090A94ED060AD0ED22
:10295000020A30EE600A84ED0A0A94ED080AD0ED0E
:10296000030A30EE600A84ED0B0A05F013F984EDDA
:102970000B0A10BDA40F0020B40000202DE9F04187
:102980000446876D00F0EAFA064694F83500002503
:10299000022806D08020606584F834500120BDE80C
:1029A000F0812068016821F016010160206841690A
:1029B00021F080014161206C08B9A06C20B1206831
:1029C000016821F0080101602068016821F001011F
:1029D00001600CE000F0C2FA801B052807D9202016
:1029E0006065032084F8350084F83450D7E7206808
:1029F0000068C007EED194F85C103F208840B860B2
:102A0000012084F8350084F834500020C7E790F89E
:102A10003510022903D0802141650120704705212E
:102A200080F835100068016821F001010160002084
:102A3000704700002DE9F84304464FF00009CDF837
:102A4000009063484FF41651A56D0068B0FBF1F794
:102A50002E6894F85C10082000FA01F131420FD082
:102A600021680A6852070BD50A6822F004020A603E
:102A700094F85C108840A860606D40F001006065CB
:102A800094F85C104FF0010808FA01F0304208D0C9
:102A900021684969090604D5A860606D40F002000C
:102AA000606594F85C1004208840304208D02168AA
:102AB0000968890704D5A860606D40F0040060656E
:102AC00094F85C1010208840304218D021680968C2
:102AD000090714D5A86020680168490304D5006877
:102AE000000308D5A16C07E00168C90503D401689B
:102AF00021F008010160216C09B12046884794F853
:102B00005C1020208840304231D021680968C90615
:102B10002DD5A86094F8350005282068016806D0F6
:102B2000490347D5006800031DD4616C1CE021F007
:102B3000160101602068416921F080014161206C2B
:102B400008B9A06C20B12068016821F0080101607B
:102B500094F85C103F208840A86084F8358084F8A1
:102B60003490216D1FE0E16B09B120468847606D0C
:102B700000282BD0606DC00714D0052084F83500E4
:102B80002068016821F0010101600098401C00905C
:102B9000B84203D820680068C007F6D184F83580B1
:102BA00084F83490E16C002910D001B02046BDE8D3
:102BB000F04308470168C905D5D4016821F0100128
:102BC000016084F8358084F83490CCE7BDE8F88360
:102BD0000C0000202DE9F041044600F0BFF9064644
:102BE0005CB1022084F83500002584F83450206858
:102BF000016821F0010101600DE00120BDE8F081D4
:102C000000F0ACF9801B052805D920206065032061
:102C100084F83500F2E720680068C007F0D1226828
:102C2000116820480140D4E901031843D4E9033670
:102C30003343184363691843A3691843E36918438E
:102C4000236A18430843616A042903D1D4E90B13AA
:102C500019430843106020684069666A20F0070144
:102C600030460E43012704280CD1A06A0643E06ACF
:102C700040B12046FFF724FB20B14020606584F876
:102C80003570BAE7206846612046FFF705FB94F8E7
:102C90005C203F2191408160656584F8357000209B
:102CA000ACE700003F8010F02DE9F0410446866D4E
:102CB00090F83400002501280DD0012084F834005C
:102CC00094F835700020012F07D084F834000225D5
:102CD0002846BDE8F0810220FBE7022784F8357022
:102CE00060652046FFF716FB94F85C103F20884093
:102CF000B0602068016841F016010160206C20B1CD
:102D00002068016841F0080101602068016841F015
:102D100001010160DCE7000070B5044600F01EF917
:102D20000546601C02D004480078044400F016F9FF
:102D3000401BA042FAD370BD000000207047000085
:102D4000044910B50A68024202D00860FFF7F6FF96
:102D500010BD0000143C01402DE9F84FDFF8BCA184
:102D60000022012503264FF00F090AF1040BAAF1F6
:102D7000040E00BF0B6805FA02F42340A34270D191
:102D80000F7907F00307012F01D0022F16D18768B2
:102D90004FEA420806FA08FC27EA0C07D1F80CC0F3
:102DA0000CFA08FC4CEA070CC0F808C04768A743B7
:102DB0000C79C4F3001494403C4344600C79E44320
:102DC000A4070AD0C4684FEA420C06FA0CF7BC43C9
:102DD0008F6807FA0CF72743C7600C7904F00304E7
:102DE000022C12D1D40800EB840CDCF820405707E9
:102DF000FF0E09FA07F824EA0804D1F8108008FA4F
:102E000007F848EA0408CCF8208004684FEA420C2E
:102E100006FA0CF7BC430F7907F0030707FA0CF723
:102E2000274307604C6814F4403F70D03C4C27683F
:102E300047F480472760246822F0030704F48044A5
:102E40000094384C07EB040CDCF8084897074FEA6D
:102E5000177809FA08F7BC43334FB84202D100276C
:102E600024E054E0314FB84201D101271EE0304F39
:102E7000B84201D1022719E02E4FB84201D10327F1
:102E800014E02D4FB84201D104270FE02B4FB84278
:102E900001D105270AE02A4FB84201D1062705E0F3
:102EA000284FB84201D1072700E0082707FA08F7A2
:102EB0002743CCF80878DAF800405746D1F804C028
:102EC0009C435FEACC2C00D51C433C60DBF80040FF
:102ED0005F46D1F804C09C435FEA8C2C00D51C43AC
:102EE0003C60DEF800407746D1F804C09C435FEABE
:102EF0008C3C00D51C433C60084F083F3C68D1F82F
:102F000004C09C435FEACC3C00D51C433C60521C8F
:102F1000102AFFF42FAFBDE8F88F0000083C0140F5
:102F200044380240003001400000024000040240EA
:102F300000080240000C0240001002400014024051
:102F400000180240001C02400069084000D0012027
:102F500070470AB1816170470904FBE70148806846
:102F6000704700000000002070B5040025D094F8E0
:102F70003D00002520B984F83C50204600F0E0FBDD
:102F8000242084F83D002068016821F001010160DF
:102F90002068016841F4004101602068016821F463
:102FA0000041016000F056FD4D4A6168914201D830
:102FB0004C4900E04C49884201D2012070BD4B4988
:102FC0002368B0FBF1F15E6826F03F060E435E60B9
:102FD0006368934206D94FF4967359434FF47A735A
:102FE000B1FBF3F12368491C1E6A26F03F0631430A
:102FF00019626168914210D84900401EB0FBF1F29D
:10300000521CC2F30B02042A01D2042022E0B0FBBE
:10301000F1F0401CC0F30B001CE0A268F2B301EB1E
:10302000C10303EB0116431EB3FBF6F35B1C43F431
:1030300080431B0549D092B301EBC10202EB0111A1
:10304000401EB0FBF1F0401CC0F30B0040F4804088
:1030500040F400402168CA694CF6FF739A4310435C
:10306000C861D4E9071001432068026822F0C00259
:1030700011430160D4E9030101432068826848F2EA
:10308000FF339A4311438160D4E905010843216865
:10309000CA6822F0FF021043C86001E00EE016E0AB
:1030A0002068016841F0010101602564202084F856
:1030B0003D00256384F83E50002070BD01EB4106C1
:1030C000431EB3FBF6F35B1CB3E70120C2E701EB41
:1030D0004101401EB0FBF1F0401CC0F30B00B7E70C
:1030E000A086010080841E0000093D0040420F00C0
:1030F0002DE9F84F1F4690468A460446DDF8289091
:10310000FFF72CFF054694F83D00202871D11923C4
:10311000012270492046009502F0C0FA0028F5D13E
:1031200094F83C00012864D0012084F83C00206819
:103130000168C90703D1016841F0010101602068FD
:10314000016821F400610160222084F83D00102014
:1031500084F83E0000262664C4F824806785608DCC
:1031600020855D48E0622B464A465146204602F0E3
:10317000D3F8002876D1208D584F68B1012814D09B
:1031800002282068016816D041F48061016020683F
:103190004169806900908EE02068416981690091F1
:1031A000016841F40071016085E02068016821F444
:1031B00080610160F0E721F48061016020680168AE
:1031C00041F40061E2E7032846D801280AD002282A
:1031D00010D04B46002239462046009502F05EFA98
:1031E000C8BB25E02A464946204602F0FDFA90BBBE
:1031F00054E06CE04B46002239462046009502F030
:103200004DFA40BB2068016841F4007101602068FC
:103210000069616A0870606A401C6062218D491E05
:103220002185618D491E618521680969017039E038
:103230002068016821F48061016020680069616A8A
:103240000870606A401C6062208D401E2085608D81
:10325000401E6085CEE705E02A464946204602F03A
:10326000C3FA10B10120BDE8F88F20680069616AD7
:103270000870606A401C6062208D401E81B221850A
:10328000608D401E608520684269D243520712D487
:10329000032903D1016821F480610160206800697D
:1032A000616A0870606A401C6062208D401E208543
:1032B000608D401E6085208D002884D1202084F8F8
:1032C0003D0084F83E6084F83C600020CBE702209B
:1032D000C9E70000020010000000FFFF0400010029
:1032E0002DE9F84F1F4690468A460446DDF828909F
:1032F000FFF734FE054694F83D0020287FD11923BE
:10330000012240492046009502F0C8F9002876D1F4
:1033100094F83C00012872D0012084F83C00206819
:103320000168C90703D1016841F00101016020680B
:10333000016821F400610160212084F83D00102023
:1033400084F83E0000262664C4F824806785608DDA
:1033500020852D48E0622B464A465146204602F021
:1033600051F890B9206841698069009036E02A469A
:103370004946204602F070FA50B1206C042804D16E
:103380002068016841F4007101600120BDE8F88FF8
:10339000606A216800780861606A401C6062618D23
:1033A000491E6185218D491E89B221852268536994
:1033B000DB435B070BD451B100781061606A401C9D
:1033C0006062608D401E6085208D401E20852A46EB
:1033D0004946204602F036F90028CED1208D00283B
:1033E000C5D154F83D0B016841F400710160202003
:1033F00004F81E09E67766770020C7E7FFE702209A
:10340000C4E70000020010000000FFFF2DE9FF4F9D
:1034100083B09A46DDE9118793460446DDF8409073
:10342000FFF79CFD054694F83D00202870D1192334
:10343000012274492046009502F030F90028F5D1A8
:1034400094F83C00012863D0012084F83C002068F7
:103450000168C90703D1016841F0010101602068DA
:10346000016821F400610160222084F83D004020C1
:1034700084F83E0000262664C4F82490A4F82A802C
:10348000608D20856048E062CDE9007553465A465C
:103490002046049902F004F8002879D1208DD0B19B
:1034A000012821D00228206824D041698069009039
:1034B000208D032866D801282BD0544902283B468A
:1034C0004FF00002009557D08846204602F0E6F8FB
:1034D00000285DD13AE02068416981690091016866
:1034E00041F4007101607DE02068016821F4806191
:1034F0000160F0E7016821F48061016020680168E3
:1035000041F400610160206841698069009069E0D0
:1035100075E02A463946204602F066F988BB54E039
:103520002068016841F40071016020680069616AE7
:103530000870606A401C6062218D491E2185618D82
:10354000491E618521680969017042E020680168AF
:1035500021F48061016020680069616A0870606A16
:10356000401C6062208D401E2085608D401E60855D
:103570003B46002241460095204602F08FF800B9F4
:10358000CEE705E02A463946204602F02DF918B16B
:10359000012007B0BDE8F08F20680069616A0870FB
:1035A000606A401C6062208D401E81B22185608D62
:1035B000401E608520684269D243520712D4032915
:1035C00003D1016821F48061016020680069616AAB
:1035D0000870606A401C6062208D401E2085608DEE
:1035E000401E6085208D00287FF462AF202084F883
:1035F0003D0084F83E6084F83C600020C9E702206A
:10360000C7E70000020010000000FFFF04000100F7
:103610002DE9FF4F83B09A46DDE9119793460446A2
:10362000DDF84080FFF79AFC054694F83D0020281D
:103630007FD11923012240492046009502F02EF83F
:10364000002876D194F83C00012872D0012084F83B
:103650003C0020680168C90703D1016841F00101FD
:1036600001602068016821F400610160212084F874
:103670003D00402084F83E0000262664C4F82480E3
:10368000A4F82A90608D20852C48E062CDE9007571
:1036900053465A462046049901F080FF70B930E045
:1036A0002A463946204602F0D7F858B1206C042843
:1036B00004D12068016841F400710160012007B065
:1036C000BDE8F08F606A216800780861606A401C7C
:1036D0006062218D491E89B22185628D521E6285EC
:1036E00022685369DB435B070BD469B10078106132
:1036F000606A401C6062208D401E2085608D401EE7
:103700006085208D0028CBD12A463946204601F01D
:1037100099FF0028CAD154F83D0B016841F40071AB
:103720000160202004F81E09E67766770020C6E7CE
:10373000FFE70220C3E70000020010000000FFFFC7
:10374000F0B587B0044614216846FCF779FF276876
:10375000234CDFF888C000222149122303250426C8
:1037600020481034674518D10F6847F002070F60F2
:10377000096802AF01F002010591C021CDE90013F3
:1037800087E864006946FFF7E7FA206840F4001014
:103790002060206800F400101CE0DFF84CC0674592
:1037A00019D10F6847F002070F60096802AF01F0F6
:1037B000020105914FF44061CDE9001387E86400F0
:1037C0006946FFF7C9FA206840F48000206020684D
:1037D00000F48000059007B0F0BD000000540040E8
:1037E000303802400004024000580040024881681E
:1037F0000278114481607047000000200B4810B52A
:10380000016841F400710160016841F48061016068
:10381000016841F480710160032000F06FF800201E
:1038200000F006F800F024F8002010BD003C024033
:1038300070B50D4D04464FF47A712878B1FBF0F065
:103840000A490968B1FBF0F000F094FC48B9102C6B
:1038500007D200222146501E00F030F800206C6094
:1038600070BD012070BD0000000000200C00002091
:103870000A4808B5016841F480410160006800F41D
:10388000804000900548001F016841F080510160B0
:10389000006800F08050009008BD000044380240ED
:1038A000002809DB00F01F0201219140400980003F
:1038B00000F1E020C0F8001170470000F0B40E4B9A
:1038C0001B680C46C3F30223C3F10705042D00D97E
:1038D0000425191D072901D2002300E0DB1E012663
:1038E00006FA05F1491E214099409E40761E164079
:1038F0003143F0BC03F072BF0CED00E0064900F06C
:10390000070208684FF6FF03184040EA0220034A06
:1039100010430860704700000CED00E00000FA055D
:103920002DE9F0470E46050065D0DFF81481D8F880
:103930000000F7B200F00700B04207D288F800702C
:10394000D8F8000000F00700B04254D128683D4C80
:10395000810712D5400703D5206840F4E05020606D
:103960002878000703D5206840F460402060206874
:10397000A96820F0F000084320602878C0072DD007
:10398000304968680839012812D0022813D003286A
:1039900011D00968890700292DDA216821F0030177
:1039A00001432160FFF7DAFA814641F2883A0EE0DE
:1039B00009688903EFE709688901ECE7FFF7CEFAA8
:1039C000A0EB0901514502D90320BDE8F08720682A
:1039D000696800F00C00B0EB810FEFD1D8F800104F
:1039E000404601F00701B14207D90770006800F0B6
:1039F0000700B04201D00120E7E72878400705D54D
:103A00002068E96820F4E050084320602878000727
:103A100006D52068296920F4604040EAC100206092
:103A200000F038F82168084AC1F30311515CC8401E
:103A30000649086006480068FFF7FAFE0020C4E760
:103A4000003C0240083802405E8D00080C00002057
:103A5000040000200448054900680968044AC1F3CD
:103A60008221515CC84070470C0000200838024099
:103A70006E8D00080448054900680968044AC1F3CE
:103A80004231515CC84070470C00002008380240A9
:103A90006E8D0008154810B5006810F00C0214482F
:103AA00013D04110042A0FD0082A0ED10F4C241F26
:103AB0002268236802F03F025B0207D52068C0F34A
:103AC0008810A0FB010106E0084610BD2168C1F383
:103AD0008811A1FB00010023FCF73CFC2168C1F325
:103AE0000141491C4900B0FBF1F010BD083802400B
:103AF0000024F4002DE9F84F04006ED02078DFF8A0
:103B00004C93C007A9F104054AD009F104000168EB
:103B1000C1F38101012908D00068C0F381000228A7
:103B20000AD1D9F80000400206D52868800337D5AD
:103B300060680028E1D033E06068B0F5803F10D0C5
:103B4000B0F5A02F286810D020F4803028602868B5
:103B500020F4802028606068A8B1FFF7FFF90646CE
:103B60000DE0286840F48030F4E740F480202860BD
:103B7000F7E700BFFFF7F2F9801B642873D82868C5
:103B80008003F7D50CE0FFF7E9F9064605E000BF32
:103B9000FFF7E4F9801B6428F0D828688003F7D485
:103BA0002078DFF8AC8280074FF0000A3ED5A748A6
:103BB000001D016811F00C0F08D00068C0F38100EF
:103BC00002280BD1D9F80000400207D428688007EA
:103BD00016D5E068012800D112E033E1E068B8B101
:103BE0000120C8F80000FFF7B9F9064605E000BF5C
:103BF000FFF7B4F9801B0228C0D828688007F7D5E2
:103C00002868216920F0F80040EAC10028600DE032
:103C1000C8F800A0FFF7A2F9064604E0FFF79EF9F6
:103C2000801B02281FD828688007F7D42078000757
:103C300022D5864F87486169703771B101210160D3
:103C4000FFF78CF9064604E0FFF788F9801B02288D
:103C500009D838688007F7D50EE0C0F800A0FFF754
:103C60007DF9064605E082E0FFF778F9801B02281F
:103C70007DD838688007F7D42078400768D5DFF80A
:103C8000CCB100270BF13C0BDBF80000C0000BD4DB
:103C9000DBF8001041F08051CBF80010DBF8000099
:103CA000012700F0805000906B4E3068C00510D4A2
:103CB000306840F480703060FFF750F9009005E004
:103CC000FFF74CF90099401A022850D83068C00517
:103CD000F6D55E4EA0686C3601280FD005283068F6
:103CE00010D020F001003060306820F00400306017
:103CF000A068B8B1FFF732F900900FE0306840F0EB
:103D00000100F4E740F004003060F7E7FFF726F920
:103D10000099411A41F28830814266D830688007A4
:103D2000F4D50EE0FFF71AF9009007E0FFF716F957
:103D30000099411A41F28830814256D83068800794
:103D4000F4D42FB1DBF8001021F08051CBF8001033
:103D5000A069C8B33D49091D0968C1F38101022961
:103D60004AD00228504607D0C8F8600000E03CE086
:103D7000FFF7F4F804463BE04746C8F86000FFF759
:103D8000EDF8064605E000BFFFF7E8F8801B0228C3
:103D90002BD828688001F7D4D4E907010843A16A29
:103DA0002E4A490802EB0141626A41EA8211084346
:103DB00094F82C1040EA0161C9F80010012038661F
:103DC000FFF7CCF8044606E03EE000BFFFF7C6F878
:103DD000001B022809D828688001F7D534E000BF0D
:103DE000FFF7BCF8001B022802D90320BDE8F88FBA
:103DF00028688001F4D427E00128F7D0D9F8000022
:103E0000E26900F4800191421CD1226A00F03F0176
:103E1000914217D147F6C071626A0140B1EB821F2F
:103E200010D1A26A4FF0FF3300F4403103EB52028D
:103E3000B1EB024F06D194F82C1000F07060B0EB9B
:103E4000016F01D00120D1E70020CFE70438024004
:103E500000004742800E4742007000400000FFFF14
:103E600070B5040009D0606A002540B12561656124
:103E7000A56294F8510040B10CE0012070BD60686B
:103E8000B0F5827FF4D0E561F2E784F85050204627
:103E900000F044F8022084F851002068016821F005
:103EA00040010160A088218900F4827001F404417E
:103EB0000843A18901F400610843217C01F002015B
:103EC0000843217D01F001010843218B01F40071B9
:103ED0000843217F01F03801084394F8201001F0D5
:103EE00080010843218D01F40051084321680860D6
:103EF000A069042101EA104094F8241001F0100197
:103F00000843216848602068C16921F40061C161EB
:103F10006565012084F85100002070BD10B586B0A1
:103F2000044614216846FCF78BFB1349206888423D
:103F300020D112480021026842F4805202600068D9
:103F400000F4805005900D481438026842F00102D8
:103F50000260006800F001000590E020009002205F
:103F6000CDE901010320039005200490694604482F
:103F7000FEF7F2FE06B010BD0030014044380240AA
:103F8000000002402DE9FF4F81B01D4693460446D4
:103F90004FF001090E9EFEF7E1FF074694F851002D
:103FA0006168012806D0B1F5827F3CD1A168C9BB08
:103FB000042838D10298002871D0BBF1000FFBD043
:103FC000002DF9D094F8500001282CD04FF0010AB0
:103FD00084F850A094F85100042802D0052084F8F9
:103FE00051004FF00008C4F85480C4F838B0E58799
:103FF000A58702992163E586A586C4F84080C4F8A8
:10400000448020680168490603D4016841F04001FA
:104010000160E068B0F5006F606808D0F0B3012D72
:1040200049D081E0FFE7022005B0BDE8F08F08B17C
:10403000012D39D1206B21680088C860206B801C5D
:104040002063E08E401EE0862EE0206881688907AC
:104050000FD5E18E69B1B9F1010F0AD1216B098841
:10406000C160206B801C2063E08E401EE0864FF014
:10407000000920688168C9070CD0E18F51B1C06880
:10408000A16B0880A06B801CA063E08F401EE087BE
:104090004FF00109FEF762FFC01B01E00BE067E093
:1040A000B04201D3701C50D1E08E0028CDD1E08FFA
:1040B0000028CAD13EE0206B216800780873206B8D
:1040C000401C2063E08E401EE0862DE02068816861
:1040D00089070FD5E18E69B1B9F1010F0AD1216BC2
:1040E00009780173206B401C2063E08E401EE0863F
:1040F0004FF0000920688168C9070CD0E18F51B1E9
:10410000C068A16B0870A06B401CA063E08F401ECC
:10411000E0874FF00109FEF721FFC01BB04202D338
:10412000701C01D011E086B1E08E0028CED1E08F66
:104130000028CBD13A463146204602F0FDFB50B173
:104140002020606584F8508012E084F851A084F843
:104150005080032068E7A06818B92068C1688068AB
:10416000009084F851A084F85080606D0028F1D050
:10417000012059E710B5401EB0F1807F01D3012026
:1041800010BD4FF0E02460610F21601703F026FBA3
:104190000020A06107202061002010BD70477047FB
:1041A00010B590F83C20012A22D0012280F83C2052
:1041B000CA688C6822F4407222434C6822F4806200
:1041C00022430C6822F4006222430C6922F48052DC
:1041D00022434C6922F400522243C969002322F48D
:1041E00080420A4301684A6480F83C30002010BDD8
:1041F000022010BD70B590F83C20012A32D0012475
:1042000080F83C40022280F83D2003685A689D688F
:1042100022F070060A6832435A60134B02689A42D1
:1042200014D0B2F1804F11D0104B9A420ED0104BE7
:104230009A420BD00F4B9A4208D00F4B9A4205D0AE
:104240000E4B9A4202D00E4B9A4204D1496825F097
:1042500080031943916080F83D40002180F83C10B4
:10426000084670BD022070BD0000014000040040FF
:1042700000080040000C00400004014000400140E4
:104280000018004010B5040003D094F83D0010B1B0
:1042900007E0012010BD002084F83C00204600F01B
:1042A0001FF8022084F83D00211D206802F0FCFC6C
:1042B000012084F8460084F83E0084F83F0084F82A
:1042C000400084F8410084F8420084F8430084F8F8
:1042D000440084F8450084F83D00002010BD000033
:1042E00008B500681149884209D11148016841F0B8
:1042F00001010160006800F00100009008BDB0F10C
:10430000804FFBD10A48001F016841F001010160A4
:104310000068002200F00100009001211C20FFF73E
:10432000CDFABDE808401C20FFF7BABA00000140F2
:104330004438024090F83D10012901D00120704717
:10434000022180F83D100168CA6842F00102CA608B
:1043500000681149884214D0B0F1804F11D00F4944
:1043600088420ED00E4988420BD00E49884208D0B0
:104370000D49884205D00D49884202D00C49884237
:1043800004D1816801F00701062903D0016841F0DA
:10439000010101600020704700000140000400405E
:1043A00000080040000C00400004014000400140B3
:1043B0000018004070B5044690F83C000025012824
:1043C00017D0012684F83C60022084F83D00206864
:1043D000826822F0770222F47F42826008685028C7
:1043E00038D00DDC20284FD005DC90B3102811D137
:1043F0004AE0022070BD302846D040280AD13BE078
:1044000060282FD070280DD0B0F5805F03D0B0F5B4
:10441000005F12D0012584F83D60002084F83C0044
:10442000284670BDCB68D1E90121206802F0B1FCBB
:104430002068816841F0770109E0CB68D1E901216A
:10444000206802F0A6FC2068816841F48041816008
:10445000E1E719E0CA684968206802F06FFD502161
:10446000206806E0CA684968206802F078FD60218B
:10447000206802F098FCCEE7CA684968206802F01C
:104480005DFD40212068F4E7226801461046F0E710
:104490002DE9F0410D46040003D094F83D0018B119
:1044A00008E00120BDE8F081002084F83C002046AF
:1044B00000F040F8022084F83D002068816844F252
:1044C000070291438160211D206802F0EDFB226804
:1044D00090689169166A2B68AF69034340F2033014
:1044E000814341EA0721A868EF6908434FF6FC4180
:1044F0008843E96840EA0720014328692F6A0001E0
:1045000040EA0730084369686D6926F0AA0646EA62
:104510000515294393602268906154F8460B0162A7
:10452000012004F81F09E0752076E0762077A07559
:104530000020B7E730B587B0044614216846FCF781
:104540007FF8214824681F4D00221F49103802239C
:10455000AC4216D10C6844F002040C60096801F00A
:1045600002010591016841F002010160006869469D
:1045700000F00200059030200090CDE90132134890
:1045800019E0134DAC421AD10C6844F004040C60DD
:10459000096801F004010591016841F0080101601A
:1045A0000068694600F0080005904FF44050009004
:1045B000CDE901320748CDE90323FEF7CDFB07B073
:1045C00030BD0000000400404038024000040240BA
:1045D00000080040000C024070B590F83E600446B0
:1045E00090F83F5090F8423090F84320022021B1DB
:1045F00004290ED0012E1BD114E0012E18D1012B5D
:1046000016D184F83E0084F842000122002120687F
:1046100020E0012D0CD1012A0AD184F83F0084F852
:10462000430014E0012D03D1012B01D1012A01D057
:10463000012070BD84F83E0084F83F0084F84200F9
:1046400084F8430001220021206802F095FB01223A
:104650000421206802F090FB2068016841F001010C
:104660000160002070BD70472DE9F04104460068EC
:10467000C66805694FF00007A90713D5B10711D522
:10468000F91E01610120207720688069800720469B
:1046900002D0FFF7E8FF04E000F0A8F8204600F0A1
:1046A0003AF92777680716D5700714D521686FF097
:1046B00004000861022020772068806910F4407FA0
:1046C000204602D0FFF7CFFF04E000F08FF820462D
:1046D00000F021F92777280715D5300713D5216871
:1046E0006FF008000861042020772068C069800707
:1046F000204602D0FFF7B7FF04E000F077F820462D
:1047000000F009F92777E80616D5F00614D52168D8
:104710006FF010000861082020772068C06910F44D
:10472000407F204602D0FFF79EFF04E000F05EF8D5
:10473000204600F0F0F82777E80708D0F00706D009
:1047400021686FF001000861204600F049F9280651
:1047500008D5300606D521686FF080000861204634
:10476000FFF71CFD680608D5700606D521686FF0B6
:1047700040000861204600F059F9A8060AD5B006A5
:1047800008D521686FF0200008612046BDE8F0419F
:10479000FFF705BDBDE8F08110B586B004461421D1
:1047A0006846FBF74DFF0E492068884216D10D4838
:1047B0000021026842F010020260006800F0100060
:1047C00005904FF4D44000900220CDE90101012072
:1047D000CDE9031069460448FEF7BEFA06B010BDE5
:1047E000000001403038024000100240704770B5B0
:1047F000044690F83C0000260D4601280FD0012009
:1048000084F83C006AB1042A1DD0082A2FD00C2A53
:104810003FD00126002084F83C00304670BD0220C5
:1048200070BD206802F0C8FA2068816941F0080173
:1048300081612068816921F00401816120688169BA
:104840002A69114311E0206802F0E6FA20688169C4
:1048500041F4006181612068816921F48061816196
:10486000206881692A6941EA02218161D2E72068D2
:1048700002F008FB2068C16941F00801C1612068AD
:10488000C16921F00401C1612068C1692A6911432D
:1048900011E0206802F02AFB2068C16941F4006140
:1048A000C1612068C16921F48061C1612068C1696A
:1048B0002A6941EA0221C161ACE710B5040003D0C6
:1048C00094F83D0010B107E0012010BD002084F8ED
:1048D0003C00204600F01EF8022084F83D00211D17
:1048E000206802F0E1F9012084F8460084F83E00D7
:1048F00084F83F0084F8400084F8410084F84200C6
:1049000084F8430084F8440084F8450084F83D00AE
:10491000002010BD7047704710B50446022249B10F
:1049200004290ED0082913D094F84100012816D08C
:10493000012010BD94F83E000128F9D184F83E20F2
:104940000FE094F83F000128F2D184F83F2008E0FE
:1049500094F840000128EBD184F8402001E084F86D
:1049600041200122206802F007FA16492068164A01
:10497000884201D0904203D1436C43F40043436426
:104980002068884213D0B0F1804F10D00F49884280
:104990000DD00F4988420AD00E49884207D0904274
:1049A00005D00D49884202D00C49884204D1816863
:1049B00001F00701062903D0016841F001010160FF
:1049C000002010BD00000140000401400004004030
:1049D00000080040000C004000400140001800406A
:1049E00070B5104900680968884219D10E4C00253D
:1049F0002078401CC0B220700A2802D3257001F034
:104A000097F96078401CC0B260700A2808D36570BE
:104A1000FDF75EFDFDF76EFFBDE8704001F058BF89
:104A200070BD0000EC020020A0010020704738B5E6
:104A3000044690F84200202801D0022038BD51B130
:104A40004AB10120206300206063204602F040FC50
:104A5000216B012901D0012038BD21680A6849680D
:104A6000009121680C3151E8002F42F0100241E81A
:104A70000023002BF5D138BD70B50D460446006803
:104A80004849884217D1204600F0B0F846492A46E6
:104A900001F1800003F054FC80214348FBF7D0FD76
:104AA000802241494148FFF7C2FF41480068016840
:104AB00021F0080101603F49206888421AD1204650
:104AC00000F094F838492A468C3101F1800003F057
:104AD00037FC354880218C30FBF7B2FD324980220B
:104AE0008C313548FFF7A3FF34480068016821F096
:104AF0000801016032492068884217D1204600F041
:104B000075F830492A4601F1800003F019FC802134
:104B10002C48FBF795FD80222A492B48FFF787FF99
:104B20002A480068016821F00801016028492068CE
:104B300088421AD1204600F059F822492A468C3181
:104B400001F1800003F0FCFB1E4880218C30FBF754
:104B500077FD1C4980228C311E48FFF768FF1E48F4
:104B60000068016821F0080101601C492068884242
:104B700017D1204600F03AF819492A4601F1800081
:104B800003F0DEFB80211648FBF75AFD8022144912
:104B90001448FFF74CFF14480068016821F0080131
:104BA000016070BD00100140400700205404002047
:104BB000EC050020004400409C0400204C0600202E
:104BC000004C004058080020C40300202C050020A1
:104BD000005000400C0400208C050020001401400F
:104BE00070090020E4040020AC06002010B5044643
:104BF0000068406994F84110C0F3C010212911D118
:104C000080B12068143050E8001F21F0800140E896
:104C10000012002AF5D1A06B08B1FDF7AFFE2046C7
:104C200002F061FA2068406994F84210C0F38010E5
:104C3000222911D180B12068143050E8001F21F0E2
:104C4000400140E80012002AF5D1E06B08B1FDF701
:104C500095FE204602F020FA002010BD70470000AB
:104C6000F8B5016804460868CA684B6910F00F0F70
:104C70004FF0000559D003F0010602F49077374356
:104C800065D0C10705D0D10503D5616C41F00101A4
:104C90006164410705D5D90703D0616C41F0020179
:104CA0006164810705D5D90703D0616C41F0040127
:104CB0006164010707D502F02001314303D0616C24
:104CC00041F008016164616C00293AD0800604D586
:104CD000900602D5204602F014FA20684069616C03
:104CE000C0F38010090700D460B3204602F0D4F965
:104CF00020684069400621D52068143050E8001F24
:104D000021F0400140E80012002AF5D1E06BA8B183
:104D100072490165E06BFDF77AFE002811D0E06B67
:104D2000016D01B0BDE8F040084783060FD593063A
:104D30000DD52046BDE8F84002F0E3B92046FFF764
:104D40008DFFF8BD2046FFF789FF6564F8BD266B2F
:104D50002023012E7ED1C6067CD5D6067AD50868DA
:104D60004868009048694FF0020640064DD5E26B56
:104D7000106840684FF480770004000C3AD0A18D91
:104D8000814237D9E085D069B8422DD020680C30F7
:104D900050E8001F21F4807140E80012002AF5D18C
:104DA0002068143050E8001F21F0010140E8001293
:104DB000002AF5D12068143050E8001F21F040018E
:104DC00040E80012002AF5D184F8423025632068BB
:104DD0000C3050E8001F21F0100140E80012002ABA
:104DE000F5D1E06BFDF7CAFD6663A08DE18D401A39
:104DF00081B206E0A18D8142A8D1D069B842A5D187
:104E000066632046FFF738FEF8BDA08DE18D401A9D
:104E100081B2E08D0028F7D00029F5D020680C3051
:104E200050E8002F22F4907240E80027002FF5D1BF
:104E30002068143050E8002F22F0010240E80027DB
:104E4000002FF5D184F84230256320680C3050E8FB
:104E5000002F00E006E022F0100240E80023002BC3
:104E6000F3D1CDE705062BD5150629D594F84100D9
:104E70002128C9D1A068B0F5805F01D12069B0B107
:104E8000206A411C2162216800784860E08C401E45
:104E90000004000CE084B7D12068C16821F08001D3
:104EA000C1602068C16841F04001C160F8BD206A5E
:104EB0000088C0F308004860206A801C2062E5E793
:104EC0004006F3D55006F1D5CA68204622F04002CC
:104ED000CA6084F8413000F005FAF8BD9D6F000803
:104EE00070B5040004D094F84100002510B106E02C
:104EF000012070BD84F84050204600F023F82420A3
:104F000084F841002068C16821F40051C160204646
:104F100002F058F92068016921F49041016120688C
:104F2000416921F02A0141612068C16841F40051C2
:104F3000C1606564202084F8410084F84200656304
:104F4000002070BD2DE9F04F87B00546142168465A
:104F5000FBF776FBAE48DFF8B4821038D5F800C016
:104F60000024AB4B032102220827DFF8A8A2061574
:104F70004FF00069C44534D1D3F800C04CF4002C84
:104F8000C3F800C01B6803F400230593036843F0D3
:104F900001030360006800F0010005908DE8160031
:104FA000CDE9031769465046FDF7D6FE9B4F9A4858
:104FB0003860C7E90194C7E903467C61BC61FC61C4
:104FC0003C6238467C62FDF705FE08B1FDF78CFABD
:104FD000EF63002201213420BD63FEF76FFC342013
:104FE00050E0DFF83C82C44551D1D3F800C04CF406
:104FF000801CC3F800C01B6803F48013059303688A
:1050000043F004030360036803F00403059303689B
:1050100043F0080303600068884600F0080005902C
:105020004FF48050CDE90002CDE90248924669462E
:1050300004977C48FDF790FE0420CDE9000ACDE9F5
:105040000248694604977848FDF786FE734F724818
:10505000603730383860C7E90194C7E903467C619E
:10506000BC61FC613C6238467C62FDF7B3FD08B16F
:10507000FDF73AFAEF63002201213520BD63FEF708
:105080001DFC3520FEF70CFC07B0BDE8F08FDFF803
:105090009C81DFF87CB14FF0070E0BF1040BC44587
:1050A0003AD1DBF8007047F01007CBF80070DBF85E
:1050B000003003F010030593036843F0010303601D
:1050C0000068CDE9024100F0010005904FF4C06096
:1050D000CDE90002CDF810E069465046FDF73CFEF0
:1050E0004E4F5348C0373860C7E90194C7E90346BB
:1050F0007C61BC61FC613C6238467C62FDF76AFD04
:1051000008B1FDF7F1F9EF63002201212520BD630D
:10511000FEF7D4FB2520B5E7DFF81881C44536D16A
:105120001F6847F400371F601B6803F400330593C2
:10513000036843F0010303600068CDE9024100F019
:10514000010005900C20CDE90002CDF810E0694681
:105150005046FDF701FE3048374F48303860C7E908
:105160000194C7E903467C61BC61FC613C6238463E
:105170007C62FDF72FFD08B1FDF7B6F9EF63002261
:1051800001212620BD63FEF799FB26207AE72B4BF1
:105190009C457FF479AFDBF800C04CF0200CCBF8D5
:1051A00000C0DBF8003003F020030593036843F0F0
:1051B000040303600068CDE9024100F0040005909B
:1051C000C020CDE90002049769461648FDF7C4FDEA
:1051D000194F17486037183838608005C7E901044F
:1051E000C7E903467C61BC61FC613C6238467C6275
:1051F000FDF7F0FC08B1FDF777F9EF63002201211C
:105200004720BD63FEF75AFB47203BE7004C0040B8
:105210004038024000000240406002402C0500205F
:105220000050004000080240000C02400010014005
:1052300040640240004400404C060020001401403D
:10524000704770472DE9F843044690F841009846AE
:1052500016460D46202802D00220BDE8F88385B10D
:105260007EB100206064212084F84100FDF776FEC5
:10527000A6848146E684A0682027B0F5805F02D02E
:1052800003E00120E9E7206910B12E4600250EE079
:1052900000260CE08021204602F06AF8A8B9C6B1C9
:1052A00016F8010B21684860E08C401EE084E08C19
:1052B0004B464FF00002CDF800800028EAD14FF0B5
:1052C0004001204602F054F840B184F841700320B8
:1052D000C3E735F8020BC0F30800E3E784F8417038
:1052E0000020BAE77047FEE701684A69D2435205D9
:1052F0000FD46FF480624A61002140F8301F2022F1
:1053000042738173026942F0040202610173012059
:1053100070470020704700002DE9F84F0446C06A2E
:105320001E4693460D4621680A6842F480620A6070
:10533000082807D0012805D010F5803F02D0206B47
:10534000112804D12068016841F4807101604FF098
:1053500001195B46002249462046009600F09EF95E
:105360004FF4007840B120680068C00501D5C4F84A
:1053700040800320BDE8F88F2069DFF884A0B0F5F5
:10538000804F0FD00620216800EAD51747F0F000C3
:10539000086133465A460AF10601204600F0C6F974
:1053A00058BB03E0E8B240F001001CE02168E8B21D
:1053B000086133465A465146204600F0B7F9E0B935
:1053C0002068416981690091016841F48071016040
:1053D0005B46002249462046009600F05FF900280F
:1053E000C1D147F0F1002168086133465A46514661
:1053F000204600F09BF90028BCD00120BAE700004D
:1054000002000100F8B50446C06A1E460D46174664
:10541000082807D0012805D010F5803F02D0206B66
:10542000122804D12068016841F48071016013469C
:1054300000224FF001112046009600F02FF940B1F4
:1054400020680068C00502D54FF400702064032076
:10545000F8BD2069B0F5804F0ED00620216800EA23
:10546000D51040F0F000086133463A460B4920461B
:1054700000F05CF978B902E005F0FE0000E0E8B267
:1054800021680861054933463A46891F204600F0E5
:105490004DF90028DCD00120F8BD00000800010013
:1054A0002DE9F84F0446006889460B9D016898462F
:1054B000174641F4806101602068016841F4807101
:1054C000016000954FF0011B0022594620460A9BBF
:1054D00000F0E4F84FF4007A40B120680068C0059D
:1054E00001D5C4F840A00320BDE8F88F216809F079
:1054F000FE0008612B46284920460A9A00F016F95A
:10550000F0BB20684169806900902A4620460A99CC
:1055100000F0A2F940B1206C04283AD1206801685B
:1055200041F40071016034E0FEB2B8F1010F09D01E
:105530002168380A08612A4620460A9900F08CF949
:105540000028E8D1206806612A4620460A9900F022
:1055500083F90028DFD12068016841F4807101607F
:1055600000950022594620460A9B00F097F8002833
:10557000B3D1216809F0FF0040F00100086100E0AC
:1055800007E02B46044920460A9A00F0CFF800288D
:10559000AAD00120A8E70000020001002DE9F8438D
:1055A000044600680D46DDE90897016898461646EE
:1055B00041F4807101604B4600224FF001112046FA
:1055C000009700F06BF848B120680068C00502D56C
:1055D0004FF4007020640320BDE8F883216805F0D3
:1055E000FE0008613B464A461549204600F09EF8F9
:1055F00088B920684169806900903A46494620464A
:1056000000F02AF948B1206C042804D12068016810
:1056100041F4007101600120DEE7F5B2B8F1010F3D
:1056200009D02168300A08613A464946204600F010
:1056300013F90028E7D1206805610020CCE70000BD
:105640000200010070B516460D4604461EE02046D5
:10565000FFF74AFE08B1012070BD681C16D0FDF7A7
:105660007DFC801BA84200D885B920684069C043F2
:1056700040070BD5002044F8300F20216173A07340
:10568000216941F0200121612073E4E7206840692D
:10569000C0434007DBD4002070BD00002DE9F04777
:1056A000984617460D460446C1F30746DDF820909C
:1056B0002AE000BFB8F1FF3F26D0FDF74FFCA0EB7A
:1056C0000901414502D8B8F1000F1DD12068012E13
:1056D00016D0806925EA00000004000C12D00020DA
:1056E000B84211D1002044F8300F20216173A0731B
:1056F000216941F02001216120730120BDE8F0877C
:105700004069E7E70120EBE72068012E0AD08069B5
:1057100025EA00000004000C06D00020B842C9D0E1
:105720000020EBE74069F3E70120F7E72DE9F047B8
:10573000984616460D4604464FF000094FF0200AE1
:10574000C1F3074723E020684069C043400515D4F2
:105750002068016841F40071016021686FF4806085
:105760004861C4F8309084F83DA084F83E90216CE4
:1057700041F00401216484F83C9021E0701C06D0C3
:10578000FDF7ECFBA0EB0800B04203D816B1012FE7
:105790001FD021E02068012F15D0806925EA000084
:1057A0000004000C18D000BF44F8309F84F80DA00E
:1057B00084F80E90216941F02001216184F80C9059
:1057C0000120BDE8F087406925EA00000004000CD4
:1057D000EAD12068406901E02068806925EA00007C
:1057E0000004000CAFD1ECE72DE9F0410025904614
:1057F0000E460446202728E04069C043C0060CD46A
:1058000054F8301B6FF01000486144F81059677766
:10581000A577206A2062257714E0FDF79FFBA0EBB7
:105820000800B04200D886B920684069C0434006ED
:105830000BD544F8305F6773A573206940F02000F2
:10584000206125730120BDE8F08120684169C943CA
:105850004906D1D40020F6E770B516460D46044639
:105860001EE02046FFF740FD08B1012070BD681C16
:1058700016D0FDF773FB801BA84200D885B92068BD
:105880004069C04300060BD5002044F8300F2021AA
:105890006173A073216941F0200121612073E4E765
:1058A00020684069C0430006DBD4002070BD0000C2
:1058B00070B5574C002581226B21607802F032FBD5
:1058C0006420FDF729FA7521607801F0F3F8207063
:1058D000FF280DD16920607081226B2102F022FB2C
:1058E0006420FDF719FA7521607801F0E3F8207063
:1058F000C0B24FF4FA7698282ED004DC122850D08B
:10590000682804D109E0AE284BD0AF2849D0012542
:105910003046FDF701FA284670BD80226B21607881
:1059200002F000FBC820FDF7F7F90022192160788A
:1059300002F0F8FA03226B21607802F0F3FA0222F7
:105940001A21607802F0EEFA08221B21607802F03A
:10595000E9FA08221C2156E000226B21607802F04F
:10596000E1FA00221921607802F0DCFA6420FDF7E8
:10597000D3F902221A21607802F0D4FA08221B21FE
:10598000607802F0CFFA08221C21607802F0CAFA8F
:1059900003221D21607802F0C5FA3046FDF7BCF9FC
:1059A000B6E780226B21607802F0BCFA6420FDF734
:1059B000B3F901226B21607802F0B4FA00221921B8
:1059C000607802F0AFFA02221A21607802F0AAFA97
:1059D00008221B21607802F0A5FA08221C216078B9
:1059E00002F0A0FA03221D21607802F09BFA002247
:1059F0006C21607802F096FA00221E21607802F095
:105A000091FA00222321607802F08CFA80E70000EE
:105A1000260000202DE9FF418F4F16460C46054613
:105A20000E236A463B21787802F06CFA3878DFED75
:105A30008B0ADFED8B1AB3EE090A9FED8A1A9828BC
:105A400054D002DC122804D1B8E0AE287DD0AF28B3
:105A50007BD0BDF8000040BA00B200EE100AB8EEEC
:105A6000C00A84ED000ABDF8020040BA00B240420C
:105A700000EE100AB8EEC00A84ED010ABDF8040079
:105A800040BA00B2404200EE100AB8EEC00A84EDFF
:105A9000020ABDF80810BDF8060049BA09B200EEC6
:105AA000101A40BA00B2B8EEC00A85ED000ABDF87F
:105AB0000A1049BA09B2494200EE101AB8EEC00AFB
:105AC00085ED010ABDF80C1049BA09B2494200EE51
:105AD000101AB8EEC00A85ED020A00EE100AB8EE00
